:020000040000FA
:0400000080311F2804
:100008007E1480312E00101C0C2886317D2680310C
:100018002E00121C12288F31AE2780312E00921C20
:1000280018288731952780312E00901C1D288E3185
:10003800C8267E10090080312128E73084008730E7
:100048008500A0308600003087000A308731F1270C
:100058008031F9015830840000308500173087312D
:10006800F7272100AA01AB01AC01AD017E102000E9
:100078008E31732E200028088039AD002D08B2007B
:100088002835AD002D08B800A71B38143808031907
:100098005A28380A031D58280030A8000030A70045
:1000A8000030A6000030A500A71762280030A8007D
:1000B8000030A7000030A6000030A5002C088039C9
:1000C800AD002D08B2062C35AD002D08B700AB1BCE
:1000D8003714370803197D28370A031D7B28003099
:1000E800AC000030AB000030AA000030A900AB170C
:1000F80085280030AC000030AB000030AA0000308A
:10010800A9003708031D3808031D93280030A800EC
:100118000030A7000030A6000030A5000800250820
:10012800AD002D08F4002B088E312F26803175087C
:100138002000BE007408BD003D08AD00AE01AF014F
:10014800B0013008B6002F08B5002E08B4002D08FD
:10015800B3003E08AD00AE01AF01B0013008BC00ED
:100168002F08BB002E08BA002D08B9002608AD00DC
:100178002D08F4002A088E312F26803175082000BA
:10018800BE007408BD003D08AD00AE01AF01B0016E
:100198002D08B3072E08B43D2F08B53D3008B63DED
:1001A8003E08AD00AE01AF01B0012D08B9072E0819
:1001B800BA3D2F08BB3D3008BC3D2708AD002D08CF
:1001C800F40029088E312F26803175082000BE00E2
:1001D8007408BD003D08AD00AE01AF01B0012D08A7
:1001E800B3072E08B43D2F08B53D3008B63D3E088C
:1001F800AD00AE01AF01B0012D08B9072E08BA3D18
:100208002F08BB3D3008BC3D0830B335B40DB50DE3
:10021800B60D890B09292608AD002D08F400290818
:100228008E312F26803175082000BE007408BD006D
:100238003D08B3073E08B43D0030B53DB63D25083E
:10024800AD002D08F4002A088E312F26803175085C
:100258002000BE007408BD003D08B3073E08B43D49
:100268000030B53DB63D0830B335B40DB50DB60D0B
:10027800890B38292508AD002D08F40029088E318E
:100288002F26803175082000BE007408BD003D0887
:10029800B3073E08B43D0030B53DB63D2608AD0075
:1002A8002D08F4002B088E312F2680317508200088
:1002B800BE007408BD003D08B9073E08BA3D0030CD
:1002C800BB3DBC3D2708AD002D08F4002A088E313F
:1002D8002F26803175082000BE007408BD003D0837
:1002E800B9073E08BA3D0030BB3DBC3D2708AD000C
:1002F8002D08F4002B088E312F2680317508200038
:10030800BE007408BD003D08AD003E08AE00AF0158
:10031800B0010830AD35AE0DAF0DB00D890B8E298B
:100328002D08B9072E08BA3D2F08BB3D3008BC3D43
:100338003308AD003408AE003508AF003608B00009
:100348001830B036AF0CAE0CAD0C890BA5292D08B2
:10035800B9072E08BA3D2F08BB3D3008BC3D083010
:10036800B335B40DB50DB60D890BB4293808370768
:10037800AD00AE01AE0D2D08823EBD00FF302E3D12
:10038800BE00BB1BDC290130B935BA0DBB0DBC0D55
:10039800890BC829B61B39140130B335B40DB50D16
:1003A800B60D890BD129FF30BD07FF30BE3DC529E9
:1003B800B701B61FF529FF303305AD00FF3034050E
:1003C800AE00FF303505AF007F303605B00030088D
:1003D8002F042E042D04031DF329391CF529B70118
:1003E800B70A370803191E2A0130B9070030BA3D89
:1003F8000030BB3D0030BC3D3C1C1E2A3908AD0016
:100408003A08AE003B08AF003C08B0000130B1002C
:10041800B037AF0CAE0CAD0CB10B0C2A3008BC00D9
:100428002F08BB002E08BA002D08B9000130BD07FF
:100438000030BE3D3E08803AAD0080302D02031DDD
:10044800272AFF303D02031C332A7F302000BC00DE
:100458008030BB000030BA000030B9005D2A2000AF
:100468003E08803AAD0080302D02031D3D2A013040
:100478003D0203184A2A00302000BC000030BB00AF
:100488000030BA000030B900B2015D2A20003D08F2
:10049800AD002D08B800FF30B905FF30BA057F3030
:1004A800BB050030BC053818BB173836AD002D0821
:1004B800BC003208AD002D08BC043C08A8003B086D
:1004C800A7003A08A6003908A5000800200031084E
:1004D8008039B2003208BB003135B2003208C200A0
:1004E800B01B421442080319872A420A031D842AB2
:1004F8000030B1000030B0000030AF000030AE0076
:10050800B017B1018F2A0030B1000030B0000030C0
:10051800AF000030AE002D088039B2003208BB06AB
:100528002D35B2003208C300AC1B4314430803192D
:10053800AB2A430A031DA82A0030AD000030AC00E6
:100548000030AB000030AA00AC17AD01B32A003070
:10055800AD000030AC000030AB000030AA002D0820
:100568002C042B042A04031DD22A0030B1000030C9
:10057800B0000030AF000030AE008030B0047F30F3
:10058800B1043B08B2003208B1043108AD003008AC
:10059800AC002F08AB002E08AA0008004208031D73
:1005A800E62A0030B1000030B0000030AF00003063
:1005B800AE003108AD003008AC002F08AB002E08A3
:1005C800AA0008004308B200B301B209B309B20A8D
:1005D8000319B30A42083207B40033080318330A70
:1005E800B50034087F3EBC000030353DBD00310801
:1005F800BA003008B9002F08B8002E08B70000303C
:10060800B1000030B0000030AF000030AE00003064
:10061800C1000030C0000030BF000030BE00C30180
:100628001A3043020318502B43080319322B0130A8
:10063800B735B80DB90DBA0D890B1C2B0130AE3585
:10064800AF0DB00DB10D890B232BC11B2E1401303A
:10065800BE35BF0DC00DC10D890B2C2B2D083A02DC
:10066800031D402B2C083902031D402B2B08380290
:10067800031D402B2A083702031C4B2B41172A085D
:10068800B7022B08B83B2C08B93B2D08BA3B013000
:10069800B2003208C307142B3A0839043804370467
:1006A800031D3E14B01B6D2B0130AE35AF0DB00DE0
:1006B800B10D890B592BC11B2E140130BE35BF0D4E
:1006C800C00DC10D890B622BFF30BC07FF30BD3D4B
:1006D800562BC301C11F862BFF303E05B200FF30E9
:1006E8003F05B300FF304005B4007F304105B50039
:1006F8003508340433043204031D842B2E1C862B46
:10070800C301C30A43080319AF2B0130AE070030F9
:10071800AF3D0030B03D0030B13D311CAF2B2E084D
:10072800B2002F08B3003008B4003108B50001301A
:10073800B600B537B40CB30CB20CB60B9D2B35080C
:10074800B1003408B0003308AF003208AE00013001
:10075800BC070030BD3D3D08803AB200803032020F
:10076800031DB82BFF303C02031CC72BFF302000B1
:10077800BC000030BD000030B1000030B0000030D7
:10078800AF000030AE0020003D08803AB200803053
:100798003202031DD12B01303C020318DF2B20004D
:1007A800BC01BD010030B1000030B0000030AF0026
:1007B8000030AE00BB0120003C08B2003208C20085
:1007C800421CE82BB017EC2B7F30B2003208B00582
:1007D8004236B2003208B1003B08B2003208B10418
:1007E8003108AD003008AC002F08AB002E08AA0075
:1007F80008002000A41F0C2C2309A6002409A70028
:10080800A60A0319A70A2608AC002708AD00102C71
:100818002408AD002308AC00AB01AA01A901A80176
:100828000A30F4000030F5002D08F7002C08F60017
:100838008E319B2683317408A03E8600870101080B
:100848002000A6002608AB000A30F4000030F500AE
:100858002D08F7002C08F6008E31FB268331750829
:100868002000AD007408AC002C082D0403199F2C3F
:100878000A30F4000030F5002D08F7002C08F600C7
:100888008E319B2683317408A03E860087010108BB
:100898002000A6002608AA000A30F4000030F5005F
:1008A8002D08F7002C08F6008E31FB2683317508D9
:1008B8002000AD007408AC002C082D0403199F2CEF
:1008C8000A30F4000030F5002D08F7002C08F60077
:1008D8008E319B2683317408A03E8600870101086B
:1008E8002000A6002608A9000A30F4000030F50010
:1008F8002D08F7002C08F6008E31FB268331750889
:100908002000AD007408AC002C082D0403199F2C9E
:100918000A30F4000030F5002D08F7002C08F60026
:100928008E319B267408A03E8600870101082000AE
:10093800A6002608A800A41FA5192B1725192A17F1
:10094800A5182917251828172808A6002608EA0038
:100958002908A6002608EB002A08A6002608EC00AD
:100968002B08A6002608ED00080020006308620492
:10097800610460040319C62C6708660465046404EE
:10098800031DCE2C0430D3000030D2000030D1003B
:100998000030F42C6408C4006508C5006608C60069
:1009A8006708C7006009C8006109C9006209CA0070
:1009B8006309CB00C80A0319C90A0319CA0A03192B
:1009C800CB0A4808C4074908C53D4A08C63D4B0834
:1009D800C73D4708D3004608D2004508D10044085F
:1009E800D0005C08CC005D08CD00890D893B8909E1
:1009F800CE00CF004F08F7004E08F6004D08F5006E
:100A08004C08F400013085316825843177082000CE
:100A1800D7007608D6007508D5007408D4005308A6
:100A2800F7005208F6005108F5005008F4000030AD
:100A380085316825843177082000AD007608AC0040
:100A48007508AB007408AA005708B1005608B00032
:100A58005508AF005408AE0082316A228431200064
:100A68002D08D7002C08D6002B08D5002A08D4005A
:100A78004C30A8006430A700E130A600C030A500C3
:100A88005708AC005608AB005508AA005408A9003E
:100A980080313E20843120002808D7002708D6005E
:100AA8002608D5002508D4005708F7005608F60090
:100AB8005508F5005408F4008531FE257508200016
:100AC800E9007408E80008002000A4002408031DB9
:100AD800F71F7E2D7409A6007509A7007609A800DE
:100AE8007709A900A60A0319A70A0319A80A03196E
:100AF800A90A862D7708A9007608A8007508A70016
:100B08007408A6007708760475047404031D952DEF
:100B18000030F7000030F6000030F5000030F40037
:100B280008009630A0002008A500FE30290503190A
:100B3800BC2D0130A0002008A5070130A936A80C5B
:100B4800A70CA60C890BA22D992D0130A000200816
:100B5800A5070130A6070030A73D0030A83D0030AA
:100B6800A93D0130A936A80CA70CA60C890BB62DF7
:100B7800FF3029050319CA2DA92D0130A50201301E
:100B8800A635A70DA80DA90D890BC42DA81BD02D1E
:100B9800023025020318C12D2518DA2DFF30A605CD
:100BA800FF30A7057F30A805FF30A9050310A50C65
:100BB8002508A000A101A201A3011830A035A10DAC
:100BC800A20DA30D890BE22D2008A6042108A70475
:100BD8002208A8042308A9042408031DF71FF52DDB
:100BE800A9172908F7002808F6002708F50026089D
:100BF800F400080074082000A0007508A100760819
:100C0800A2007708A3000310220D230DA4002408D6
:100C1800A6002608031D192E0030F7000030F60044
:100C28000030F5000030F40008007408A0007508D2
:100C3800A1007608A2007708A3001F30A336A20CF3
:100C4800A10CA00C890B222E2008A4002408A500C2
:100C5800F617FF30F405FF30F505FF30F6050030D4
:100C6800F7059630A602A61F552E2608803A973E0D
:100C78000318472E0030F7000030F6000030F5006A
:100C88000030F40008000130F736F60CF50CF40CCF
:100C9800890B482E0130A0002008A60703196E2EE4
:100CA800472E20302602031C6B2E0030F700003040
:100CB800F6000030F5000030F40008000130F4358B
:100CC800F50DF60DF70D890B632E0130A6022608E7
:100CD800031D622E250803190800F409F509F60911
:100CE800F709F40A0319F50A0319F60A0319F70AAA
:100CF80008000130F0007008F90779081F39031D52
:100D0800C72E7908031D992E0030F0000030F1003D
:100D18000030F2002030F30070082000E40271086F
:100D2800E53B7208E63B7308E73B20005A09F000F0
:100D38005B09F100F00A0319F10A58087007F2007C
:100D48005908713DF3007208DC007308DD0059088A
:100D5800DB005808DA002030F0007008DE000C30A4
:100D6800583E86008701403FE000413FE100423F96
:100D7800E200433FE3000030E7000030E6000030C7
:100D8800E5000030E4001F307905F0001F307006E0
:100D9800031DDF2E20005E080319DF2EDE01003060
:100DA800E7000030E6000030E5000030E4000130E4
:100DB800F0007008DF002E00101008002000A201CB
:100DC800A301A4019B30F4007408A5003D30F40091
:100DD8007408A6003830F4007408A7003830F4000E
:100DE8007408A800BE30F4007408A900AA01AB0179
:100DF800AC01AD01AF0109302F02031808002F081C
:100E0800223E860087010108F4007408EA002F08D2
:100E1800013E223E860087010108F4007408EB00B9
:100E28002F08023E223E860087010108F40074085C
:100E3800EC002F08033E223E860087010108F400DB
:100E48007408ED00A001A1016E08F4007408AE005A
:100E580000302102C8300319200203183C2F6E0805
:100E68002E0603192C2F0130A0070030A13D282F92
:100E78000130F4007408AF07FF2E20008C1D6D2F81
:100E880016140C1E6A2F8C1E582F6908803AF4001D
:100E980080307402031D522F1E3068020318582F29
:100EA800200096101615080020008C1A0800690802
:100EB800803AF4007F307402031D642FE330680227
:100EC800031C08002000161196140800961016112D
:100ED800080016100D1C7F2F6908803AF4007F3037
:100EE8007402031D792FE3306802031C7F2F200052
:100EF80016119614080020008D1D912F6908803A5C
:100F0800F40080307402031D8B2F1E306802031812
:100F1800912F200096101615080020009610161123
:100F2800080020005E080319D52F7908F000F101A8
:100F3800F201F30173082100AD007208AC007108DA
:100F4800AB007008AA000830AA35AB0DAC0DAD0D8A
:100F5800890BA82F260011082100AA040830AA35F9
:100F6800AB0DAC0DAD0D890BB32F26001008210079
:100F7800AA042A082000E40721002B082000E53DE8
:100F880021002C082000E63D21002D082000E73D27
:100F98000130DE025E08031DD52F0130F000700815
:100FA800DF008D1CDA2F0D19E02FDC2F0D1DE02F2F
:100FB8000130D8070030E32FFF30D807FF30D93D84
:100FC8002E0092100800BE3482343734A7348B3494
:100FD800AD34BD348634BF34AF34FE0012001E0079
:100FE800FE0BF22F0034640080010131890BF82FC9
:020FF8000034C3
:101C5E002000A400A001A1017408F600F701760887
:101C6E00A2007708A300241C402E2208A0072308F8
:101C7E00A13D0130A235A30D890B412E0310A40CFA
:101C8E002408031D3A2E2108F5002008F400080050
:101C9E002000EE01BE30F4007408EA00BE30F400FD
:101CAE007408EB00BE30F4007408EC00BE30F40093
:101CBE007408ED0025001008F039013890007030DE
:101CCE008E047D308D00F0308E058B170B172E0095
:101CDE009A1425008E1708008F316E278E318631AB
:101CEE00E2268E31873141278E3120005F0803199D
:101CFE00792E8431B9248E312000DF018C1D912E76
:101D0E006908A4006808A300A501A50A8331FD2374
:101D1E008E31792E20006908A4006808A300A50161
:101D2E008331FD238E31792E740875040319C32E69
:101D3E002000A001A00AF51BAE2E0130F435F50DE2
:101D4E00890BA52E0130F8007808A007A22E750881
:101D5E007702031DB42E74087602031CBA2E740883
:101D6E00F6027508F73B0130F536F40C890BBB2EE5
:101D7E000130A002031DAE2E7708F5007608F400A0
:101D8E000800200097171717971617166E080339B5
:101D9E006A3E8600870101089800DD2E9713F42E07
:101DAE001713F42E9712F42E1712F42E6E08033911
:101DBE00F000F1017108003A0319E62EF42E7008B6
:101DCE00003A0319D52E013A0319D72E033A0319F7
:101DDE00D92E013A0319DB2EF42E0130F0007008D3
:101DEE00EE072E00901008002000A001A10174083B
:101DFE00750403192B2FA201A20AF51B102F013017
:101E0E00F435F50D890B072F0130F8007808A2077D
:101E1E00042F0130A035A10D890B112F7508770203
:101E2E00031D1B2F74087602031C222F7408F60262
:101E3E007508F73B20140130F536F40C890B232F6F
:101E4E000130A202031D102F2108F5002008F40016
:101E5E000800F9012000D801D901DA01DB01DC010B
:101E6E00DD01DE01DF010030E3000030E200003072
:101E7E00E1000030E0000030E7000030E600003006
:101E8E00E5000030E400E801E90124001108F03912
:101E9E0001389100CF308E058E140E148B170B1750
:101EAE002E001A1426000E08F03903388E008F010A
:101EBE008E171208F03903389200930192178B1780
:101ECE000B172E0012101C1492109C1408002000E8
:101EDE0091101111111091153E00B811200011161C
:101EEE003E003812200091163E00B8122000131149
:101EFE00931093139312131293111310131392132F
:101F0E0012139212121212143E0043102000921558
:101F1E003E00C311200012153E0043112000921402
:101F2E003E00C31055303D008F00AA308F000F10B9
:101F3E000A30A1000930A20055308F00AA308F0060
:101F4E000F148E314F268F318F313027080020002D
:101F5E005E080319EE2F7908F000F101F201F3018A
:101F6E0073082100AD007208AC007108AB00700858
:101F7E00AA000830AA35AB0DAC0DAD0D890BC12FE3
:101F8E0026000D082100AA040830AA35AB0DAC0DB1
:101F9E00AD0D890BCC2F26000C082100AA042A08AF
:101FAE002000E40721002B082000E53D21002C082D
:101FBE002000E63D21002D082000E73D0130DE0225
:101FCE005E08031DEE2F0130F0007008DF000D1DBE
:101FDE00F32F8D18F92FF52F8D1CF92FFF30D80701
:101FEE00FF30FC2F0130D8070030D93D2E001210E3
:021FFE000800D9
:020000040001F9
:0A000E00AA1FFD359F3FFC3FFF3F96
:00000001FF
