:020000040000FA
:0400000080311F2804
:100008007E1480312E00101C0C288631DA268031AF
:100018002E00121C12288F31B62780312E00921C18
:1000280018288731932780312E00901C1D288E3187
:10003800D0267E10090080312128203084008E309F
:100048008500A0308600003087000A308E311A26DD
:100058008031F801F90158308400003085001630ED
:100068008E3114262100AA01AB01AC01AD017E102E
:1000780020008E314E2E200028088039AD002D0832
:10008800B2002835AD002D08B800A71B3814380871
:1000980003195B28380A031D59280030A8000030CE
:1000A800A7000030A6000030A500A717632800307D
:1000B800A8000030A7000030A6000030A5002C08DA
:1000C8008039AD002D08B2062C35AD002D08B700DB
:1000D800AB1B3714370803197E28370A031D7C2801
:1000E8000030AC000030AB000030AA000030A9009E
:1000F800AB1786280030AC000030AB000030AA00F7
:100108000030A9003708031D3808031D9428003063
:10011800A8000030A7000030A6000030A5000800A5
:100128002508AD002D08F4002B088731DD27803124
:1001380075082000BE007408BD003D08AD00AE0182
:10014800AF01B0013008B6002F08B5002E08B40082
:100158002D08B3003E08AD00AE01AF01B001300874
:10016800BC002F08BB002E08BA002D08B9002608CD
:10017800AD002D08F4002A088731DD278031750885
:100188002000BE007408BD003D08AD00AE01AF01FF
:10019800B0012D08B3072E08B43D2F08B53D30082F
:1001A800B63D3E08AD00AE01AF01B0012D08B9075C
:1001B8002E08BA3D2F08BB3D3008BC3D2708AD00CE
:1001C8002D08F40029088731DD27803175082000C3
:1001D800BE007408BD003D08AD00AE01AF01B0011E
:1001E8002D08B3072E08B43D2F08B53D3008B63D9D
:1001F8003E08AD00AE01AF01B0012D08B9072E08C9
:10020800BA3D2F08BB3D3008BC3D0830B335B40DAE
:10021800B50DB60D890B0A292608AD002D08F40086
:1002280029088731DD27803175082000BE00740851
:10023800BD003D08B3073E08B43D0030B53DB63DAE
:100248002508AD002D08F4002A088731DD27803104
:1002580075082000BE007408BD003D08B3073E08BD
:10026800B43D0030B53DB63D0830B335B40DB50DDD
:10027800B60D890B39292508AD002D08F400290889
:100288008731DD27803175082000BE007408BD0065
:100298003D08B3073E08B43D0030B53DB63D2608DD
:1002A800AD002D08F4002B088731DD278031750853
:1002B8002000BE007408BD003D08B9073E08BA3DDD
:1002C8000030BB3DBC3D2708AD002D08F4002A08CE
:1002D8008731DD27803175082000BE007408BD0015
:1002E8003D08B9073E08BA3D0030BB3DBC3D270874
:1002F800AD002D08F4002B088731DD278031750803
:100308002000BE007408BD003D08AD003E08AE00E8
:10031800AF01B0010830AD35AE0DAF0DB00D890B92
:100328008F292D08B9072E08BA3D2F08BB3D300884
:10033800BC3D3308AD003408AE003508AF003608C0
:10034800B0001830B036AF0CAE0CAD0C890BA62936
:100358002D08B9072E08BA3D2F08BB3D3008BC3D13
:100368000830B335B40DB50DB60D890BB52938086D
:100378003707AD00AE01AE0D2D08823EBD00FF303F
:100388002E3DBE00BB1BDD290130B935BA0DBB0DB2
:10039800BC0D890BC929B61B39140130B335B40D0E
:1003A800B50DB60D890BD229FF30BD07FF30BE3D14
:1003B800C629B701B61FF629FF303305AD00FF3057
:1003C8003405AE00FF303505AF007F303605B0008C
:1003D80030082F042E042D04031DF429391CF62996
:1003E800B701B70A370803191F2A0130B9070030C7
:1003F800BA3D0030BB3D0030BC3D3C1C1F2A3908CB
:10040800AD003A08AE003B08AF003C08B000013030
:10041800B100B037AF0CAE0CAD0CB10B0D2A3008E3
:10042800BC002F08BB002E08BA002D08B900013007
:10043800BD070030BE3D3E08803AAD0080302D0239
:10044800031D282AFF303D02031C342A7F30200078
:10045800BC008030BB000030BA000030B9005E2A12
:1004680020003E08803AAD0080302D02031D3E2A50
:1004780001303D0203184B2A00302000BC00003038
:10048800BB000030BA000030B900B2015E2A20007B
:100498003D08AD002D08B800FF30B905FF30BA059A
:1004A8007F30BB050030BC053818BB173836AD00A7
:1004B8002D08BC003208AD002D08BC043C08A8007B
:1004C8003B08A7003A08A6003908A5000800200044
:1004D80031088039B2003208BB003135B200320829
:1004E800C200B01B421442080319882A420A031D9D
:1004F800852A0030B1000030B0000030AF00003075
:10050800AE00B017B101902A0030B1000030B00041
:100518000030AF000030AE002D088039B20032083C
:10052800BB062D35B2003208C300AC1B4314430888
:100538000319AC2A430A031DA92A0030AD00003074
:10054800AC000030AB000030AA00AC17AD01B42AF3
:100558000030AD000030AC000030AB000030AA0025
:100568002D082C042B042A04031DD32A0030B100C3
:100578000030B0000030AF000030AE008030B00472
:100588007F30B1043B08B2003208B1043108AD0035
:100598003008AC002F08AB002E08AA00080042085B
:1005A800031DE72A0030B1000030B0000030AF0072
:1005B8000030AE003108AD003008AC002F08AB00A9
:1005C8002E08AA0008004308B200B301B209B30913
:1005D800B20A0319B30A42083207B40033080318F1
:1005E800330AB50034087F3EBC000030353DBD00FD
:1005F8003108BA003008B9002F08B8002E08B70033
:100608000030B1000030B0000030AF000030AE0064
:100618000030C1000030C0000030BF000030BE0014
:10062800C3011A3043020318512B43080319332B13
:100638000130B735B80DB90DBA0D890B1D2B013036
:10064800AE35AF0DB00DB10D890B242BC11B2E1487
:100658000130BE35BF0DC00DC10D890B2D2B2D08E6
:100668003A02031D412B2C083902031D412B2B088C
:100678003802031D412B2A083702031C4C2B411753
:100688002A08B7022B08B83B2C08B93B2D08BA3BFF
:100698000130B2003208C307152B3A083904380470
:1006A8003704031D3E14B01B6E2B0130AE35AF0D61
:1006B800B00DB10D890B5A2BC11B2E140130BE355C
:1006C800BF0DC00DC10D890B632BFF30BC07FF3078
:1006D800BD3D572BC301C11F872BFF303E05B2001C
:1006E800FF303F05B300FF304005B4007F304105BF
:1006F800B5003508340433043204031D852B2E1C41
:10070800872BC301C30A43080319B02B0130AE0776
:100718000030AF3D0030B03D0030B13D311CB02B52
:100728002E08B2002F08B3003008B4003108B50015
:100738000130B600B537B40CB30CB20CB60B9E2B17
:100748003508B1003408B0003308AF003208AE00F5
:100758000130BC070030BD3D3D08803AB200803012
:100768003202031DB92BFF303C02031CC82BFF309B
:100778002000BC000030BD000030B1000030B000E7
:100788000030AF000030AE0020003D08803AB200D3
:1007980080303202031DD22B01303C020318E02BBB
:1007A8002000BC01BD010030B1000030B0000030B5
:1007B800AF000030AE00BB0120003C08B200320898
:1007C800C200421CE92BB017ED2B7F30B200320873
:1007D800B0054236B2003208B1003B08B200320818
:1007E800B1043108AD003008AC002F08AB002E086A
:1007F800AA00080020006308620461046004031969
:100808000B2C6708660465046404031D132C04306C
:10081800CF000030CE000030CD000030392C640805
:10082800C4006508C5006608C6006708C7006009F7
:10083800C8006109C9006209CA006309CB00C80A77
:100848000319C90A0319CA0A0319CB0A4808C407B5
:100858004908C53D4A08C63D4B08C73D4708CF0073
:100868004608CE004508CD004408CC005C08D000FE
:100878005D08D100890D893B8909D200D300003079
:10088800A3000030A2000030A1003C30A0005308B3
:10089800A7005208A6005108A5005008A4008E31F0
:1008A800A026833120002308D3002208D200210883
:1008B800D1002008D0005308F7005208F60051086C
:1008C800F5005008F40001308531C52583317708DB
:1008D8002000D7007608D6007508D5007408D40023
:1008E8004F08F7004E08F6004D08F5004C08F400D4
:1008F80000308531C525833177082000AD007608A2
:10090800AC007508AB007408AA005708B100560877
:10091800B0005508AF005408AE0082316B22833115
:1009280020002D08D7002C08D6002B08D5002A084F
:10093800D4004330AD008030AC000030AB00003054
:10094800AA005708B1005608B0005508AF0054086F
:10095800AE0082316B22833120002D08D7002C088D
:10096800D6002B08D5002A08D4004230A800003051
:10097800A7000030A6000030A5005708AC005608B4
:10098800AB005508AA005408A90080313F208331E4
:1009980020002808D7002708D6002608D5002508F3
:1009A800D4004A30A800F430A7002430A600003054
:1009B800A5005708AC005608AB005508AA00540813
:1009C800A90080313F20833120002808D70027085C
:1009D800D6002608D5002508D4005708F700560881
:1009E800F6005508F5005408F40086315B267508B2
:1009F8002000E9007408E80008002000A51F102D59
:100A08002409A7002509A800A70A0319A80A270886
:100A1800AD002808AE00142D2508AE002408AD004E
:100A2800AC01AB01AA01A9010A30F4000030F500BD
:100A38002E08F7002D08F6008E31732685317408CC
:100A4800A03E8600870101082000A7002708AC0007
:100A58000A30F4000030F5002E08F7002D08F600E3
:100A68008F310327853175082000AE007408AD006A
:100A78002D082E040319A42D0A30F4000030F500C7
:100A88002E08F7002D08F6008E317326853174087C
:100A9800A03E8600870101082000A7002708AB00B8
:100AA8000A30F4000030F5002E08F7002D08F60093
:100AB8008F310327853175082000AE007408AD001A
:100AC8002D082E040319A42D0A30F4000030F50077
:100AD8002E08F7002D08F6008E317326853174082C
:100AE800A03E8600870101082000A7002708AA0069
:100AF8000A30F4000030F5002E08F7002D08F60043
:100B08008F310327853175082000AE007408AD00C9
:100B18002D082E040319A42D0A30F4000030F50026
:100B28002E08F7002D08F6008E31732685317408DB
:100B3800A03E8600870101082000A7002708A90019
:100B4800A51FA6192C1726192B17A6182A17261819
:100B580029172908A70027082100AA0020002A0829
:100B6800A70027082100AB0020002B08A7002708B2
:100B78002100AC0020002C08A70027082100AD00A8
:100B880008002000A4002408031DF71FDB2D7409AA
:100B9800A6007509A7007609A8007709A900A60A82
:100BA8000319A70A0319A80A0319A90AE32D770844
:100BB800A9007608A8007508A7007408A600770899
:100BC800760475047404031DF22D0030F70000301C
:100BD800F6000030F5000030F40008009630A00060
:100BE8002008A500FE3029050319192E0130A000A0
:100BF8002008A5070130A936A80CA70CA60C890B5C
:100C0800FF2DF62D0130A0002008A5070130A6070A
:100C18000030A73D0030A83D0030A93D0130A9367D
:100C2800A80CA70CA60C890B132EFF302905031955
:100C3800272E062E0130A5020130A635A70DA80DD6
:100C4800A90D890B212EA81B2D2E02302502031871
:100C58001E2E2518372EFF30A605FF30A7057F303A
:100C6800A805FF30A9050310A50C2508A000A101BF
:100C7800A201A3011830A035A10DA20DA30D890B67
:100C88003F2E2008A6042108A7042208A804230848
:100C9800A9042408031DF71F522EA9172908F700D5
:100CA8002808F6002708F5002608F400080074084C
:100CB8002000A0007508A1007608A2007708A3000C
:100CC8000310220D230DA4002408A6002608031DE6
:100CD800762E0030F7000030F6000030F5000030C6
:100CE800F40008007408A0007508A1007608A200A6
:100CF8007708A3001F30A336A20CA10CA00C890B07
:100D08007F2E2008A4002408A500F617FF30F4055C
:100D1800FF30F505FF30F6050030F7059630A602DE
:100D2800A61FB22E2608803A973E0318A42E00303C
:100D3800F7000030F6000030F5000030F40008003D
:100D48000130F736F60CF50CF40C890BA52E0130A2
:100D5800A0002008A6070319CB2EA42E20302602B7
:100D6800031CC82E0030F7000030F6000030F500F4
:100D78000030F40008000130F435F50DF60DF70DDC
:100D8800890BC02E0130A6022608031DBF2E250898
:100D980003190800F409F509F609F709F40A031913
:100DA800F50A0319F60A0319F70A08000130F000DA
:100DB8007008F80778081F39031D242F7808031DC9
:100DC800F62E0030F0000030F1000030F200203044
:100DD800F30070082000E4027108E53B7208E63B66
:100DE8007308E73B20005A09F0005B09F100F00A9C
:100DF8000319F10A58087007F2005908713DF30009
:100E08007208DC007308DD005908DB005808DA00B6
:100E18002030F0007008DE000C30583E8600870154
:100E2800403FE000413FE100423FE200433FE30032
:100E38000030E7000030E6000030E5000030E40054
:100E48001F307805F0001F307006031D3C2F20006E
:100E58005E0803193C2FDE010030E7000030E60091
:100E68000030E5000030E4000130F0007008DF00D9
:100E78002E001010080020008C1D6B2F16140C1E5D
:100E8800682F8C1E562F6908803AF400803074024F
:100E9800031D502F1E3068020318562F200096108D
:100EA8001615080020008C1A08006908803AF4001A
:100EB8007F307402031D622FE3306802031C0800B0
:100EC8002000161196140800961016110800161026
:100ED8000D1C7D2F6908803AF4007F307402031DD1
:100EE800772FE3306802031C7D2F2000161196141B
:100EF800080020008D1D8F2F6908803AF40080308B
:100F08007402031D892F1E30680203188F2F2000DA
:100F180096101615080020009610161108002000DB
:100F28005E080319CB2F7808F000F101F201F301F4
:100F38007308ED007208EC007108EB007008EA0015
:100F48000830EA35EB0DEC0DED0D890BA52F2600C9
:100F580011082000EA040830EA35EB0DEC0DED0D20
:100F6800890BB02F260010082000EA046A08E4075D
:100F78006B08E53D6C08E63D6D08E73D0130DE0293
:100F88005E08031DCB2F0130F0007008DF008D1CB8
:100F9800D02F0D19D62FD22F0D1DD62F0130D807DF
:100FA8000030D92FFF30D807FF30D93D2E009210DE
:100FB80008002000A400A001A1017408F600F701B0
:100FC8007608A2007708A300241CEE2F2208A007A9
:100FD8002308A13D0130A235A30D890BEF2F031083
:100FE800A40C2408031DE82F2108F5002008F400AC
:020FF8000800EF
:101C2800640080010131890B152E0034FE0012007A
:101C38001E00FE0B1B2E0034BE3482343734A7340A
:101C48008B34AD34BD348634BF34AF34F901BE3083
:101C5800F40074082100AA00BE30F4007408AB0038
:101C6800BE30F4007408AC00BE30F4007408AD0057
:101C780025001008F0390138900070308E047D304E
:101C88008D00F0308E058B170B172E009A14250047
:101C98008E1708008F3176278E3187313F278E3196
:101CA80020005F080319512E8331FE238E31200056
:101CB800DF018C1D692E6908A5006808A400A6012B
:101CC800A60A853101258E31512E20006908A5000C
:101CD8006808A400A601853101258E31512E7408AB
:101CE800750403199B2E2000A101A10AF51B862E5D
:101CF8000130F435F50D890B7D2E0130A000200848
:101D0800A1077A2E75087702031D8C2E74087602B7
:101D1800031C922E7408F6027508F73B0130F5365D
:101D2800F40C890B932E0130A102031D862E77082F
:101D3800F5007608F40008000030F7000030F600DF
:101D48000030F5000030F4002000201CB32E2408D9
:101D5800F4072508F53D2608F63D2708F73D01302C
:101D6800A435A50DA60DA70D890BB42E0130A336F9
:101D7800A20CA10CA00C890BBB2E23082204210461
:101D88002004031DA82E7708A3007608A200750872
:101D9800A1007408A00008002000971717179716CD
:101DA800171679080339AA3E8600870101089800AA
:101DB800E52E9713FC2E1713FC2E9712FC2E1712E4
:101DC800FC2E79080339F000F1017108003A031973
:101DD800EE2EFC2E7008003A0319DD2E013A031985
:101DE800DF2E033A0319E12E013A0319E32EFC2EE4
:101DF8000130F0007008F9072E009010080020004C
:101E0800A201A301740875040319332FA101A10AC3
:101E1800F51B182F0130F435F50D890B0F2F013004
:101E2800A0002008A1070C2F0130A235A30D890BB3
:101E3800192F75087702031D232F74087602031CD7
:101E48002A2F7408F6027508F73B22140130F5367C
:101E5800F40C890B2B2F0130A102031D182F230826
:101E6800F5002208F4000800F8012000D801D90183
:101E7800DA01DB01DC01DD01DE01DF010030E30016
:101E88000030E2000030E1000030E0000030E70000
:101E98000030E6000030E5000030E400E801E90128
:101EA80024001108F03901389100CF308E058E14C6
:101EB8000E148B170B172E001A1426000E08F03973
:101EC80003388E008F018E171208F03903389200FC
:101ED800930192178B170B172E0012101C149210D7
:101EE8009C140800200091101111111091153E004A
:101EF800B811200011163E003812200091163E003D
:101F0800B812200013119310931393121312931104
:101F180013101313921312139212121212143E007A
:101F28004310200092153E00C311200012153E00F8
:101F38004311200092143E00C31055303D008F001D
:101F4800AA308F000F100A30A1000930A2005530C6
:101F58008F00AA308F000F148E312A268F318F31CF
:101F68003827080020005E080319EE2F7808F000D3
:101F7800F101F201F3017308ED007208EC00710839
:101F8800EB007008EA000830EA35EB0DEC0DED0DBA
:101F9800890BC82F26000D082000EA040830EA350E
:101FA800EB0DEC0DED0D890BD32F26000C0820004E
:101FB800EA046A08E4076B08E53D6C08E63D6D082D
:101FC800E73D0130DE025E08031DEE2F0130F00010
:101FD8007008DF000D1DF32F8D18F92FF52F8D1CBC
:101FE800F92FFF30D807FF30FC2F0130D807003019
:081FF800D93D2E001210080073
:020000040001F9
:0A000E00AA1FFD359F3FFC3FFF3F96
:00000001FF
