:08000000803102288731EE2F48
:100D4800FE0012001E00FE0BA52E0034BE348234B5
:100D58003734A7348B34AD34BD348634BF34AF3424
:100D68008631CB2686312000961016111610C53014
:100D7800F8002230F9008731712786317C088731E5
:100D88000F2786310130FB007B08FC07C22E2000AC
:100D980091101111111091151116111613119310AC
:100DA8009313931213129311131013139213121314
:100DB8009212121212149215121592140800700849
:100DC800710403190A2FF501F50AF11BF52E0130FC
:100DD800F035F10D890BEC2E0130F4007408F5079D
:100DE800E92E71087302031DFB2E70087202031CA2
:100DF800012F7008F2027108F33B0130F136F00C54
:100E0800890B022F0130F502031DF52E7308F1003E
:100E18007208F0000800F2002000971717179716BD
:100E28001716720803392A3E8600870101089800C0
:100E3800252F971308001713080097120800171298
:100E4800080072080339F000F1017108003A03192B
:100E58002E2F3C2F7008003A03191D2F013A031951
:100E68001F2F033A0319212F013A0319232F3C2F6F
:100E78000800F501F6017008710403196C2FF701D9
:100E8800F70AF11B512F0130F035F10D890B482F6E
:100E98000130F4007408F707452F0130F535F60DD9
:100EA800890B522F71087302031D5C2F70087202A0
:100EB800031C632F7008F2027108F33B75140130AC
:100EC800F136F00C890B642F0130F702031D512F06
:100ED8007608F1007508F00008000A30F0000030CC
:100EE800F1007908F3007808F2008631E3268731AB
:100EF8007008203E860087010108FA007A08200061
:100F0800AD000A30F0000030F1007908F3007808ED
:100F1800F20087313D2787317108F9007008F80021
:100F28000A30F0000030F1007908F3007808F20088
:100F38008631E32687317008203E86008701010844
:100F4800FA007A082000AC000A30F0000030F10006
:100F58007908F3007808F20087313D278731710856
:100F6800F9007008F8000A30F0000030F100790844
:100F7800F3007808F2008631E32687317008203EB6
:100F8800860087010108FA007A082000AB000A30C1
:100F9800F0000030F1007908F3007808F20087319A
:100FA8003D2787317108F9007008F8000A30F00011
:100FB8000030F1007908F3007808F2008631E32662
:100FC8007008203E860087010108FA007A08200090
:100FD800AA000800AA3084008630850020308600E8
:100FE800003087000A308631A426AA01AB01AC0183
:080FF800AD0120008631B42E8A
:020000040001F9
:0A000E00AA37FD359F3FFF3FFF3F7B
:00000001FF
