:040000008031212802
:100008007E14803120007F08F3002E000C1E0F287C
:100018008131B42180312E00901C1C288131562159
:100028000130F20072082000B807B9012E009010C4
:1000380073082000FF007E1009008031232821303A
:1000480084008230850020308600003087000A3026
:1000580082313522F901B401B501B601B701B80101
:10006800B901BA01BB017E1020008031F1280A30A5
:10007800F4000030F50020002E08F7002D08F600E7
:100088008131872180317408203E8600870101086C
:100098002000AF002F08B7000A30F4000030F50048
:1000A8002E08F7002D08F6008031BC208031750835
:1000B8002000AE007408AD000A30F4000030F500EE
:1000C8002E08F7002D08F600813187218031740849
:1000D800203E8600870101082000AF002F08B600E7
:1000E8000A30F4000030F5002E08F7002D08F6005D
:1000F8008031BC20803175082000AE007408AD0046
:100108000A30F4000030F5002E08F7002D08F6003C
:100118008131872180317408203E860087010108DB
:100128002000AF002F08B5000A30F4000030F500B9
:100138002E08F7002D08F6008031BC2080317508A4
:100148002000AE007408AD000A30F4000030F5005D
:100158002E08F7002D08F600813187217408203E0B
:100168008600870101082000AF002F08B4000800AE
:100178002000AA01AB01740875040319EC28AC012E
:10018800AC0AF51BD1280130F435F50D890BC828C8
:100198000130F8007808AC07C5280130AA35AB0D46
:1001A800890BD22875087702031DDC2874087602AB
:1001B800031CE3287408F6027508F73B2A1401307B
:1001C800F536F40C890BE4280130AC02031DD12864
:1001D8002B08F5002A08F400080081312521803118
:1001E80013302000BB008830BA003908031DF928F5
:1001F8008231022280310D2901302000B2070030FF
:10020800B33D3B08AE003A08AD0080313B20803159
:100218001F29200038080F39B000B1013108003A11
:10022800031917291F293008003A03190029083A29
:1002380003191F291F2901302000B0003008B90018
:10024800F928200091101111111091153E00B811D4
:10025800200011163E003812200091163E00B812F8
:100268002000131193109313931213129311131068
:100278001313921312139212121212143E00431007
:10028800200092153E00C311200012153E004311B4
:10029800200092143E00C3108131DE218131823169
:1002A8002B2208002000971717179716171679089A
:1002B8000339343E86008701010898006B2997139B
:1002C80082291713822997128229171282297908FD
:1002D8000339F000F1017108003A031974298229E1
:1002E8007008003A03196329013A03196529033A8A
:1002F80003196729013A0319692982290130F00095
:100308007008F9070800740875040319AF2920005C
:10031800AA01AA0AF51B9A290130F435F50D890BB3
:1003280091290130F8007808AA078E297508770204
:10033800031DA02974087602031CA6297408F60276
:100348007508F73B0130F536F40C890BA729013005
:10035800AA02031D9A297708F5007608F400080018
:100368003E004A1DC92920000D1DBD298D18C3292D
:10037800BF298D1CC329FF30BA07FF30C6290130B9
:10038800BA070030BB3D3E004A11CA1C08002000D5
:100398008D1CD1290D19D729D3290D1DD729013035
:1003A800BA070030DA29FF30BA07FF30BB3D3E00FC
:1003B800CA100800F901BE30F40074082000B40027
:1003C800BE30F4007408B500BE30F4007408B600FE
:1003D800BE30F4007408B70025001008F039013861
:1003E800900070308E047D308D00F0308E058B17B4
:1003F8000B172E009A1425008E17080020008C1D5C
:10040800132A16140C1E102A8C1E0D2A9610161567
:1004180008001611961408009610161108001610F8
:100428000D1C192A1611961408008D1D1E2A9610E7
:1004380016150800961016110800BE348234373499
:10044800A7348B34AD34BD348634BF34AF342E007A
:1004580016163E004A11CA1048154915C814C91481
:0E0468000800FE0012001E00FE0B362A0034B3
:020000040001F9
:0A000E00AA37FD359F3FFF3FFF3F7B
:00000001FF
