:0400000080312928FA
:100008007E14803120007F08F5002E0012180E287B
:10001800921C11288231862280312E00101C17284C
:1000280084312F2480312E00901C24288531CD2541
:100038000130F40074082000D307D4012E0090107A
:1000480075082000FF007E10090080312B28F3304E
:10005800840086308500A0308600003087000A3092
:100068008631FD268031F601F701F801F901FA0120
:1000780053308400003085001C30873103278031DD
:10008800AA308400003085000830873103277E10AD
:1000980020008431FD2C20005A08803ABE008030B0
:1000A8003E02031D592841305902031C252920000E
:1000B8005908CA005A08CB00890D893B8909CC0028
:1000C800CD000030A3000030A2000030A1003C3079
:1000D800A0004D08A7004C08A6004B08A5004A0838
:1000E800A4008531FE25803120002308CD00220898
:1000F800CC002108CB002008CA006908BE006A08A5
:10010800BF006B08C0006C08C1006509C200660921
:10011800C3006709C4006809C500C20A0319C30AF5
:100128000319C40A0319C50A4208BE074308BF3D9C
:100138004408C03D4508C13D4108C9004008C80001
:100148003F08C7003E08C6001030C6070030C73D4C
:100158000030C83D0030C93D0530C936C80CC70C51
:10016800C60C890BB1284D08AB004C08AA004B08F7
:10017800A9004A08A8008631862680312000280870
:10018800CE002908CF002A08D0004908AB0048084B
:10019800AA004708A9004608A800863186268031AB
:1001A80020002808AE002908AF002A08B0004E0831
:1001B800B1004F08B2005008B3008131DD21803111
:1001C80020002E08CE002F08CF003008D0000030C5
:1001D800AE008030AF004330B0004E08B1004F0889
:1001E800B2005008B3008131DD21803120002E0893
:1001F800CE002F08CF003008D0002430A800F430FB
:10020800A9004A30AA004E08AB004F08AC005008BD
:10021800AD0081312921803120002808CE0029082D
:10022800CF002A08D0004E08A0004F08A1005008AF
:10023800A2008331A82320002108EE002008ED0049
:1002480008002000ED01EE01080020002808AE009B
:100258002908AF002A08B00003102F0D300DB10097
:100268003108B2003208031D40290030A8000030D0
:10027800A9000030AA0008002B08AE002C08AF0027
:100288002D08B00003102F0D300DB1003108B70054
:100298003708031D56290030A8000030A900003097
:1002A800AA00080037087B3EAE002E08B2072808CF
:1002B800AE002908AF002A08B0001030B036AF0CE5
:1002C800AE0C890B62292E08B1003108B7002B0843
:1002D800AE002C08AF002D08B0001030B036AF0CBF
:1002E800AE0C890B72292E08B1003108B706803090
:1002F800AE002E08B705A917AC17FF30AB05FF30C5
:10030800AC050030AD050030B3000030B40000305B
:10031800B5000730AE002E08B600281C99292B0816
:10032800B3072C08B43D2D08B53D0130AA36A90CF9
:10033800A80C890B9A290130AB35AC0DAD0D890B92
:10034800A0290130B602031D91290930AE002E08FC
:10035800B600281CB5292B08B3072C08B43D2D0876
:10036800B53D0130AA36A90CA80C890BB629013075
:10037800B536B40CB30C890BBC290130B602031D89
:10038800AD293308A0003408A1003508A2003208BE
:10039800AE002E08A3003708AF002F08A400843150
:1003A800982420002008A8002108A9002208AA00F3
:1003B800080020003108B4003208B5003308B60040
:1003C8000310350D360DB7003708BC003C08031D77
:1003D800F4290030AE000030AF000030B000080053
:1003E8002E08B4002F08B5003008B6000310350DEC
:1003F800360DB7003708BD003D08031D0A2A003036
:10040800AE000030AF000030B00008000030B90086
:100418000030BA000030BB0089303D07B400340812
:10042800BC023108B4003208B5003308B6001030F9
:10043800B636B50CB40C890B1C2A3408B70037083B
:10044800BD002E08B4002F08B5003008B6001030E3
:10045800B636B50CB40C890B2C2A3408B70037080B
:10046800BD068030B4003408BD05B217FF30B105B1
:10047800FF30B2050030B305AF17FF30AE05FF30CF
:10048800AF050030B0051830B4003408B8000130AA
:10049800B935BA0DBB0D890B4C2A30083302031D40
:1004A8005B2A2F083202031D5B2A2E083102031C27
:1004B800642A2E08B1022F08B23B3008B33B391426
:1004C8000130B135B20DB30D890B652A0130B80280
:1004D800031D4B2A3908A0003A08A1003B08A200D6
:1004E8003C08B4003408A3003D08B5003508A40052
:1004F8008431982420002008AE002108AF0022088B
:10050800B00008002E00121CD32A20005B08031933
:10051800C22A76082100AA007708AB00AC01AD0119
:100528000830AA35AB0DAC0DAD0D890B952A260008
:100538000D082100AA040830AA35AB0DAC0DAD0D8D
:10054800890BA02A26000C082100AA042A082000EA
:10055800E90721002B082000EA3D21002C08200093
:10056800EB3D21002D082000EC3D0130DB025B084B
:10057800031DC22A0130F0007008E4000D1DC72ACF
:100588008D18CD2AC92A8D1CCD2AFF30D507FF30FA
:10059800D02A0130D5070030D63D2E001210921C0B
:1005A800080020005B0803190E2B76082100AA001A
:1005B8007708AB00AC01AD010830AA35AB0DAC0D26
:1005C800AD0D890BE12A260011082100AA04083084
:1005D800AA35AB0DAC0DAD0D890BEC2A2600100821
:1005E8002100AA042A082000E90721002B0820007E
:1005F800EA3D21002C082000EB3D21002D082000B9
:10060800EC3D0130DB025B08031D0E2B0130F000CE
:100618007008E4008D1C132B0D19192B152B0D1DBB
:10062800192B0130D50700301C2BFF30D507FF30C0
:10063800D63D2E00921008000A302000A00000309D
:10064800A1002908A3002808A20086312E2683319C
:1006580020002008A03E860087010108AA002A0879
:100668002100B1000A302000A0000030A1002908B4
:10067800A3002808A200853198258331200021088D
:10068800A9002008A8000A30A0000030A10029080D
:10069800A3002808A20086312E26833120002008D6
:1006A800A03E860087010108AA002A082100B000A0
:1006B8000A302000A0000030A1002908A300280863
:1006C800A20085319825833120002108A90020083F
:1006D800A8000A30A0000030A1002908A3002808BB
:1006E800A20086312E26833120002008A03E8600F5
:1006F80087010108AA002A082100AF000A3020005B
:10070800A0000030A1002908A3002808A200853114
:100718009825833120002108A9002008A8000A3064
:10072800A0000030A1002908A3002808A2008631F3
:100738002E2620002008A03E860087010108AA0076
:100748002A082100AE00080020002008A400210883
:10075800A5002208A6000310250D260DA7002708CE
:10076800AD002D08031DC12B0030A3000030A200EE
:100778000030A1000030A00008002008A4002108D3
:10078800A5002208A6001730A636A50CA40C890BD4
:10079800C82B2408A7002708A800A117FF30A00528
:1007A800FF30A1050030A2052008A9002108AA00F1
:1007B8002208AB00AC018E30AD02AD1FFF2B2D0817
:1007C800803A8F3E0318F12B0030A3000030A200BE
:1007D8000030A1000030A00008000130AC36AB0C9E
:1007E800AA0CA90C890BF22B0130A4002408AD0730
:1007F8000319182CF12B18302D02031C152C00306E
:10080800A3000030A2000030A1000030A0000800C2
:100818000130A935AA0DAB0DAC0D890B0D2C01309B
:10082800AD022D08031D0C2C28080319262CA90934
:10083800AA09AB09AC09A90A0319AA0A0319AB0A40
:100848000319AC0A2C08A3002B08A2002A08A1004F
:100858002908A00008000130F6070030F73D1F30D6
:100868007605F00000307705F10070087104031D6B
:10087800952C0230533E8600870120005709F0006E
:100888005809F100F00A0319F10A403F7007F20015
:10089800413F713DF3007208D9007308DA00560829
:1008A800D8005508D7005A08803AF0008030700206
:1008B800031D602C41305902031C7C2C2030F000B1
:1008C80070082000DB001630533E86008701403F49
:1008D800E500413FE600423FE700433FE8000030C3
:1008E800EC000030EB000030EA000030E900952C05
:1008F80076082000E9007708EA00EB01EC011030E7
:10090800E935EA0DEB0DEC0D890B842C0530E93542
:10091800EA0DEB0DEC0D890B8B2C0130F000700803
:10092800E4002E0010100800200023080319A12C51
:10093800220821042004031DB22C0030A00000303E
:10094800A1000030A20008000130A5002508A30777
:100958000130A236A10CA00C890BAD2CFE3022056B
:100968000319CB2CA82C0130A5002508A3070130BA
:10097800A007003003180130A10700300318013028
:10098800A2070130A236A10CA00C890BC62CFF309F
:1009980022050319D82CB72C0130A3020130A03549
:1009A800A10DA20D890BD32CA11BDE2C0230230232
:1009B8000318D02C2318E62CFF30A0057F30A105A2
:1009C800FF30A2050310A30C2308A500A601A70168
:1009D8001030A535A60DA70D890BED2C2508A00410
:1009E8002608A1042708A204240803190800A2174E
:1009F80008008531582584312000D501D601D7015A
:100A0800D801D901DA015408031D072D8631D426EF
:100A18008431200064080319402D80314F2084312F
:100A28002000E4016E08803AD10080305102031D95
:100A38001F2D01306D02031C2A2D20006E08A9000D
:100A48006D08A800833120238431402D20006D09D2
:100A5800D1006E09D200D10A0319D20A5108A800A0
:100A68005208A900833120238431402D0130210010
:100A7800B2070030B33D522D200053080F39D10082
:100A8800D2015208003A03194A2D522D5108003A52
:100A980003193A2D083A0319522D522D013020001E
:100AA800D1005108D400072D200091101111111008
:100AB80091153E00B811200011163E003812200092
:100AC80091163E00B812200013119310931393123D
:100AD800131293111310131392131213921212126A
:100AE80012143E004310200092153E00C31120004E
:100AF80012153E004311200092143E00C3105530D9
:100B08003D008F00AA308F000F100A30A100093075
:100B1800A20055308F00AA308F000F1486315B2653
:100B280085318631B02608002000A601A7012008DB
:100B380021040319C82DA501A50AA11BAD2D01305B
:100B4800A035A10D890BA42D0130A4002408A50708
:100B5800A12D0130A635A70D890BAE2D2108230242
:100B6800031DB82D20082202031CBF2D2008A20255
:100B78002108A33B26140130A136A00C890BC02DF7
:100B88000130A502031DAD2D2708A1002608A000ED
:100B98000800200097171717971617167A080339B1
:100BA800AE3E8600870101089800E22D9713F92DC3
:100BB8001713F92D9712F92D1712F92D7A08033901
:100BC800F000F1017108003A0319EB2DF92D7008B6
:100BD800003A0319DA2D013A0319DC2D033A0319F7
:100BE800DE2D013A0319E02DF92D0130F0007008CF
:100BF800FA07080000302000AB000030AA000030DF
:100C0800A9000030A800201C112E2408A8072508D8
:100C1800A93D2608AA3D2708AB3D0130A435A50DFE
:100C2800A60DA70D890B122E0130A336A20CA10C1C
:100C3800A00C890B192E2308220421042004031D6B
:100C4800072E2B08A3002A08A2002908A1002808BB
:100C5800A00008002000200821040319562EA50131
:100C6800A50AA11B412E0130A035A10D890B382EF4
:100C78000130A4002408A507352E21082302031DEE
:100C8800472E20082202031C4D2E2008A20221080C
:100C9800A33B0130A136A00C890B4E2E0130A502D2
:100CA800031D412E2308A1002208A0000800FA0114
:100CB800BE302000A00020082100AE00BE30200079
:100CC800A00020082100AF00BE302000A0002008AE
:100CD8002100B000BE302000A00020082100B10093
:100CE80025001008F0390138900070308E047D30EE
:100CF8008D00F0308E058B170B172E009A142500E7
:100D08008E1708008E302000AC002C08AD00FF3094
:100D18002B0503199B2E0130AB36AA0CA90CA80C85
:100D2800890B902E0130AC002C08AD078B2E2808BB
:100D3800A0002908A1002A08A2002D08AC002C0850
:100D4800A300A4018431982420002008A8002108C9
:100D5800A9002208AA000800F601F70124001108DA
:100D6800F03901389100CF308E058E140E148B1790
:100D78000B172E001A1426000E08F03903388E00BF
:100D88008F018E171208F0390338920093019217D9
:100D98008B170B172E0012101C1492109C140800AD
:100DA80020008C1DE52E16140C1EE22E8C1EDF2E44
:100DB80096101615080016119614080096101611AC
:100DC800080016100D1CEB2E1611961408008D1D28
:100DD800F02E961016150800961016110800BE344D
:100DE80082343734A7348B34AD34BD348634BF34C1
:100DF800AF34FE0012001E00FE0BFE2E003464000D
:0A0E080080010131890B042F003432
:020000040001F9
:0A000E00AA1FFD359F3FFC3FFF3F96
:00000001FF
